{
  "contractName": "HelloWorld",
  "abi": [
    {
      "inputs": [],
      "name": "getName",
      "outputs": [
        {
          "internalType": "string",
          "name": "",
          "type": "string"
        }
      ],
      "stateMutability": "view",
      "type": "function",
      "constant": true
    },
    {
      "inputs": [
        {
          "internalType": "string",
          "name": "newName",
          "type": "string"
        }
      ],
      "name": "setName",
      "outputs": [],
      "stateMutability": "nonpayable",
      "type": "function"
    }
  ],
  "bytecode": "0x60806040526040518060400160405280600b81526020017f43656c6f204e6573746f720000000000000000000000000000000000000000008152506000908051906020019061004f929190610062565b5034801561005c57600080fd5b50610166565b82805461006e90610134565b90600052602060002090601f01602090048101928261009057600085556100d7565b82601f106100a957805160ff19168380011785556100d7565b828001600101855582156100d7579182015b828111156100d65782518255916020019190600101906100bb565b5b5090506100e491906100e8565b5090565b5b808211156101015760008160009055506001016100e9565b5090565b7f4e487b7100000000000000000000000000000000000000000000000000000000600052602260045260246000fd5b6000600282049050600182168061014c57607f821691505b602082108114156101605761015f610105565b5b50919050565b6103ce806101756000396000f3fe608060405234801561001057600080fd5b50600436106100365760003560e01c806317d7de7c1461003b578063c47f002714610059575b600080fd5b610043610075565b6040516100509190610259565b60405180910390f35b610073600480360381019061006e91906102ea565b610107565b005b60606000805461008490610366565b80601f01602080910402602001604051908101604052809291908181526020018280546100b090610366565b80156100fd5780601f106100d2576101008083540402835291602001916100fd565b820191906000526020600020905b8154815290600101906020018083116100e057829003601f168201915b5050505050905090565b81816000919061011892919061011d565b505050565b82805461012990610366565b90600052602060002090601f01602090048101928261014b5760008555610192565b82601f1061016457803560ff1916838001178555610192565b82800160010185558215610192579182015b82811115610191578235825591602001919060010190610176565b5b50905061019f91906101a3565b5090565b5b808211156101bc5760008160009055506001016101a4565b5090565b600081519050919050565b600082825260208201905092915050565b60005b838110156101fa5780820151818401526020810190506101df565b83811115610209576000848401525b50505050565b6000601f19601f8301169050919050565b600061022b826101c0565b61023581856101cb565b93506102458185602086016101dc565b61024e8161020f565b840191505092915050565b600060208201905081810360008301526102738184610220565b905092915050565b600080fd5b600080fd5b600080fd5b600080fd5b600080fd5b60008083601f8401126102aa576102a9610285565b5b8235905067ffffffffffffffff8111156102c7576102c661028a565b5b6020830191508360018202830111156102e3576102e261028f565b5b9250929050565b600080602083850312156103015761030061027b565b5b600083013567ffffffffffffffff81111561031f5761031e610280565b5b61032b85828601610294565b92509250509250929050565b7f4e487b7100000000000000000000000000000000000000000000000000000000600052602260045260246000fd5b6000600282049050600182168061037e57607f821691505b6020821081141561039257610391610337565b5b5091905056fea26469706673582212204c775af472f4beccd0168b46b60ca9c4e4853fe6ebef4790e3c55acb3c8a1cc564736f6c63430008090033",
  "immutableReferences": {},
  "source": "// Learn more about Solidity here: https://solidity.readthedocs.io\n\n// This statement specifies the compatible compiler versions\npragma solidity >=0.5.0;\n\n// Declare a contract called HelloWorld\ncontract HelloWorld {\n    // Define a string called name, initialize it to 'Celo'\n    string name = \"Celo Nestor\";\n\n    // Declares a function called getName\n    // The 'public' label means the function can be called internally, by transactions or other contracts\n    // The 'view' label indicates that the function does not change the state of the contract\n    // The function returns a string, from the memory data location\n    function getName() public view returns (string memory) {\n        // Return the storage variable 'name'\n        return name;\n    }\n\n    // Declare a function called setName\n    // The function takes 1 parameter, a string, called newName, with the calldata data location in the Ethereum Virtual Machine\n    // The 'external' label means the function can only be called from an external source\n    function setName(string calldata newName) external {\n        // Set the storage variable, name, to the value passed in as newName\n        name = newName;\n    }\n}\n",
  "sourcePath": "/Users/nestorbonilla/Documents/blockchain/celo-dappkit/contracts/HelloWorld.sol",
  "compiler": {
    "name": "solc",
    "version": "0.8.9+commit.e5eed63a.Emscripten.clang"
  },
  "schemaVersion": "3.4.1",
  "updatedAt": "2021-10-19T22:11:31.464Z",
  "networkType": "ethereum",
  "devdoc": {
    "kind": "dev",
    "methods": {},
    "version": 1
  },
  "userdoc": {
    "kind": "user",
    "methods": {},
    "version": 1
  }
}